:020000040000FA
:10000000E00720208D010000910100009301000015
:1000100000000000000000000000000000000000E0
:10002000000000000000000000000000950100003A
:10003000000000000000000097010000990100008E
:100040009B0100009B010000751C00009B0100004B
:100050009B0100009B0100009B0100009B01000030
:100060009B0100009B0100009B0100009B01000020
:100070009B0100009B0100009B0100009B01000010
:100080009B0100009B0100009B0100009B01000000
:10009000091C00009B0100009B0100009B01000067
:1000A0009B0100009B0100009B0100009B010000E0
:1000B0009B0100009B0100009B0100009B010000D0
:1000C00000F002F800F052F812A030C808382418E6
:1000D0002D18AC4201D100F049F80FCCA246AB4636
:1000E0000CA730CF2D1B083F3F197C427F1E544484
:1000F0002D090426F441641EAC4201D300F036F809
:100100000126334200D0FB1A3343984754465D46DC
:10011000DFE70000AC400000DC4000000000000011
:10012000103A02D378C878C1FAD8520701D330C840
:1001300030C101D504680C60704700000000000069
:100140007047000000000000002300240025002666
:10015000103A01D378C1FBD8520700D330C100D583
:100160000B6070471FB51FBD10B510BD00F043F9FF
:100170001146FFF7F7FF02F03BFB00F05BF903B419
:10018000FFF7F2FF03BC00F061F9000006480047EA
:10019000FEE7FEE7FEE7FEE7FEE7FEE70348044969
:1001A000024A044B70470000C1000000E006202016
:1001B000E0072020E006202001E004C0091F0429F8
:1001C000FBD28B0701D50280801CC90700D00270CA
:1001D000704700290BD0C30702D00270401C491E93
:1001E000022904D3830702D50280801C891EE3E71D
:1001F0000022EEE70022DFE7002203098B4273D3DF
:10020000030A8B4258D3030B8B423CD3030C8B4223
:1002100021D312E003460B437FD4002243088B42D4
:1002200074D303098B425FD3030A8B4244D3030B7D
:100230008B4228D3030C8B420DD30902FF2212BA42
:10024000030C8B4202D31212090265D0030B8B42BE
:1002500019D300E0090AC30B8B4201D3CB03C01AA8
:100260005241830B8B4201D38B03C01A5241430B83
:100270008B4201D34B03C01A5241030B8B4201D373
:100280000B03C01A5241C30A8B4201D3CB02C01ADE
:100290005241830A8B4201D38B02C01A5241430A56
:1002A0008B4201D34B02C01A5241030A8B4201D345
:1002B0000B02C01A5241CDD2C3098B4201D3CB01EC
:1002C000C01A524183098B4201D38B01C01A52419B
:1002D00043098B4201D34B01C01A524103098B429F
:1002E00001D30B01C01A5241C3088B4201D3CB008A
:1002F000C01A524183088B4201D38B00C01A52416D
:1003000043088B4201D34B00C01A5241411A00D21C
:1003100001465241104670475DE0CA0F00D0494285
:10032000031000D3404253409C46002203098B42F5
:100330002DD3030A8B4212D38901FC2212BA030A7D
:100340008B420CD3890192118B4208D389019211FF
:100350008B4204D389013AD0921100E08909C30984
:100360008B4201D3CB01C01A524183098B4201D386
:100370008B01C01A524143098B4201D34B01C01A71
:10038000524103098B4201D30B01C01A5241C308E9
:100390008B4201D3CB00C01A524183088B4201D358
:1003A0008B00C01A5241D9D243088B4201D34B0073
:1003B000C01A5241411A00D20146524110466346CA
:1003C0005B1001D34042002B00D549427047634681
:1003D0005B1000D3404201B50449002802DC491CEF
:1003E000084000E00846C046C04602BDFFFFFF7F50
:1003F000704770477047754600F024F8AE46050018
:1004000069465346C008C000854618B020B5FFF7BE
:10041000C5FE60BCB64600260027C0C5C0C5C0C525
:10042000C0C5C0C5C0C5C0C5C0C5403D490849001C
:100430008D46704710B50446C046C0462046FFF7BB
:100440009EFE10BD00487047C000202001491820C2
:10045000ABBEFEE7260002007047000006480168B8
:10046000012291430160D00404490860BFF34F8F1B
:10047000BFF36F8F7047C0460438864080E100E0CC
:10048000811E091F00BFFCD27047000012490A6894
:10049000124802604A6842608A688260CA68C26024
:1004A0000A6902614A6942618A698261CA69C261F4
:1004B0000A6A02624A6A42628A6A8262CA6AC262DC
:1004C0000A6B02634A6B42638A6B8263C96B9F4A01
:1004D0000264C1637047C0460000C441340020205C
:1004E00080B5022313430A4A83508218D16103F076
:1004F0009BFB80BD10B5064B0124C450C318FF24DC
:1005000010341C62D9611168D96203F08DFB10BDF3
:1005100004110000F0B583B0144600916D490B68DA
:1005200005260E6007273B4087490A68156C8749F6
:100530008D420294019001D1916901E01B4801684C
:1005400064480360046806603C4089048B0F7F4860
:10055000854201D1906901E0144800680099124F6A
:100560008E0A5C490C60002B314608D0591C104A99
:10057000104003F05DFA01463046FFF73DFE01985A
:10058000C01901229302029C9C4204D053029C4257
:1005900008D1CE0800E03C301F2131408A4001687C
:1005A0009143016003B0F0BDD41100001800C441B4
:1005B000FF0F0000B0B51122120283580C4C1C40F2
:1005C0000B894D881D438B792B430A4D1D402B19F8
:1005D00083508B88CC791C43097821435D239B0091
:1005E0001940801842689A4389184160B0BDC046DE
:1005F00080CCFFFF7F33000010B501221203831867
:100600000C785C604978815010BD0000F0B585B071
:100610000446012739022E4D28680491884328603A
:1006200049480068006C4949884201D0FFF72EFF15
:10063000514801684904FCD5617E3940AA69BA4332
:100640005118A9612021615C03221140EB69934399
:100650005918E9611F490A6805230B60636A1F681E
:100660002F625B686B62072313400B60E1697F2296
:100670001202EB6993434906490C5918E96127684E
:100680006668A1680191E36821690291616903913B
:10069000AA69114911403A07120B3603B6B2B218D3
:1006A0001A43019B1B071B0D1343029A1343039A22
:1006B0001343227E1A43094B13405918A961296834
:1006C000049A1143296001688905FCD505B0F0BD85
:1006D00008010B40001340408D00F0FF72FF0F0037
:1006E000F0B581B014460D46064617480068006C08
:1006F0001649884201D0FFF7C9FE15480246083A5C
:10070000136801218B43136003231B031E400768FA
:100710009F43BB1903600368FF26B343EDB25B1927
:10072000036013680B43136002680907002C07D0AD
:100730000A43026010480168C905FCD501B0F0BD4C
:100740008A43026001B0F0BD78002020FECAFECAD4
:1007500010010B4007498860074802689202FCD5E7
:10076000012212040B6813430B600168C906FCD513
:100770007047C04604010B4004020B40F0B57F4AAD
:1007800082183B4BC31808794E793A4D7D4C002EA8
:1007900023D0202804D00526F601002803D003E04A
:1007A000354E002800D18826576F2F4037435767B2
:1007B000976F2F4037439767566B26405663966B6B
:1007C000264096630026566596658F26F6435F6839
:1007D00037405F609F6837409F608E7909682028A6
:1007E0000BD0002819D1491E5160D76E2F408821A7
:1007F0000F43D7661746703719E0491E5160D16E16
:1008000029401D4F3943D166116F29403943116783
:1008100001214907194D174609E049085160D76E73
:100820002F400521C9010F43D766174670373C6832
:100830002C400C433C60D16A524C2140D162116B78
:10084000214011630021D16411658F21C943D46F08
:100850000C40D4671C680C401C600643BD2030402F
:100860001168074B0B40C018801C1060F0BDC046DB
:100870008418000024493E0001040000FFFFFFCF60
:100880004000FFCFB0B54A683B4BC2503B4A80188E
:100890000A78222A58D8930001A4E3589F46C046FC
:1008A0003F090000490900003F0900004909000014
:1008B00049090000490900004909000049090000F0
:1008C00049090000490900004909000049090000E0
:1008D00049090000490900004909000049090000D0
:1008E0002D090000490900002D09000049090000F8
:1008F00049090000490900004909000049090000B0
:10090000490900004909000049090000490900009F
:10091000490900004909000049090000490900008F
:100920002D090000490900002D09000003231B07C1
:1009300004689C4301235B07E318036004E003237E
:100940001B0704689C4304600B69C360CB680C4CB4
:100950001C40C36A0B4D1D402B19C36203680A4C2F
:100960001C400460097A11433F22114003689343FD
:1009700059180160B0BDC0460818000004180000F6
:10098000777702008888FDFF7F00FFFF10B50723FF
:100990009B04194092008018024A84589C436118B5
:1009A000815010BD3018000010B5029CA400001941
:1009B00011431943014A815010BDC0465018000030
:1009C00092008018014A81507047C04610180000FC
:1009D00010B50122120383180C789C604B78835069
:1009E0008978014A815010BD0C110000F0B589B022
:1009F000EF48402404611920C0010290FFF740FD38
:100A0000012739057D4D2868C002059105D4286865
:100A1000084202D10123002001E0002338463A06B3
:100A20002968C901049206D42968114203D1022120
:100A30000891002101E0089339467B062A6892015B
:100A4000039306D42A681A4203D103220892002293
:100A500000E03A463B040793FE062B681B0104D4D2
:100A60002B68334201D1079978E006960840104080
:100A7000CF4804600FD0802404610298FFF700FD86
:100A800028680599084209D12868084206D1012042
:100A90000890002003E0089807997CE03846049A03
:100AA000039B2968114206D12968114203D1022112
:100AB0000891002100E039462A681A4206D12A68C6
:100AC0001A4203D103220892002200E03A462B6822
:100AD000069E334206D12B68069E334202D1079907
:100AE000091D3BE008401040B14804600FD00126CA
:100AF000340204610298FFF7C3FC28680599084294
:100B000008D12868084205D10020089603E007991B
:100B1000091D3FE03846049A039B2968114206D11B
:100B20002968114203D102210891002100E03946D1
:100B30002A681A42019606D12A681A4203D1032272
:100B40000892002200E03A462B68069E334209D103
:100B50002B68069E334205D10799083194480460FA
:100B6000042018E0084010409148046010D001991A
:100B70004C0204610298FFF783FC2868059908423B
:100B80000DD1286808420AD10D20089000200AE003
:100B9000079908310898401880B209B0F0BD08984C
:100BA0000C3008903846049A039B2968114206D1FC
:100BB0002968114203D10E210891002100E0394635
:100BC0002A681A4205D12A681A4202D10F220892D5
:100BD00000272A68069B1A4206D12A681A4203D1C6
:100BE000734804601020D7E708403840704804601C
:100BF00001D10898D0E70020CEE7C04680330A40F4
:100C00006B48402101608021016001210A020260DD
:100C1000490201607047C046F0B581B00121080269
:100C200049020022644B654C03E0521C082A00D1A3
:100C30009CE0186119612568ED0608D52568ED0668
:100C400005D52568ED0602D52568ED06F3D4B02557
:100C5000154325632568ED0608D52568ED0605D5FD
:100C60002568ED0602D52568ED06F3D419601860F5
:100C7000186119612568ED0608D52568ED0605D5CA
:100C80002568ED0602D52568ED06F3D40225256317
:100C90002568ED0608D52568ED0605D52568ED061D
:100CA00002D52568ED06F3D4196018601861196142
:100CB0002568ED0608D52568ED0605D52568ED06FD
:100CC00002D52568ED06F3D4102525632568ED06C9
:100CD00008D52568ED0605D52568ED0602D52568F9
:100CE000ED06F3D419601860002505E0196018605E
:100CF000AD1C6DB2002D98D4186019612668F606F7
:100D000008D52668F60605D52668F60602D52668B3
:100D1000F606F3D4002626632768FF0608D5276861
:100D2000FF0605D52768FF0602D52768FF06F3D41E
:100D300019601860186019612768FF0608D52768D0
:100D4000FF0605D52768FF0602D52768FF06F3D4FE
:100D500026632668F606C9D52668F606C6D526682F
:100D6000F606C3D52668F606F3D4BFE74120010195
:100D70000248FFF73FFA01B0F0BDC0462001202035
:100D8000F0B583B00127FD05094E3560094C2046BA
:100D9000FFF776FB35612046FFF772FB35603C02BA
:100DA000054D2C6102977E022E61044F08E0C0467B
:100DB00090320A4000127A0090520A401091464048
:100DC0003868C00608D53868C00605D53868C0063A
:100DD00002D53868C006F3D4AE2038633868C00640
:100DE00008D53868C00605D53868C00602D5386809
:100DF000C006F3D42E602C602C612E613868C006CA
:100E000008D53868C00605D53868C00602D53868E8
:100E1000C006F3D4022038633968C90608D539689A
:100E2000C90605D53968C90602D53968C906F3D49B
:100E30002E602C602C612E613968C90608D539688E
:100E4000C90605D53968C90602D53968C906F3D47B
:100E50001021019139633968C90608D53968C90676
:100E600005D53968C90602D53968C906F3D42E609C
:100E70002C602C612E613968C90608D53968C9060D
:100E800005D53968C90602D53968C906F3D44022A8
:100E90003A633968C90608D53968C90605D539687D
:100EA000C90602D53968C906F3D42E602C602C61BE
:100EB0002E613968C90608D53968C90605D539686B
:100EC000C90602D53968C906F3D481213963396866
:100ED000C90608D53968C90605D53968C90602D5D5
:100EE0003968C906F3D42E602C602C612E613968F4
:100EF000C90608D53968C90605D53968C90602D5B5
:100F00003968C906F3D4CF2139633968C90608D5D1
:100F10003968C90605D53968C90602D53968C906D0
:100F2000F3D42E602C602C612E613968C90608D577
:100F30003968C90605D53968C90602D53968C906B0
:100F4000F3D4A12139633968C90608D53968C906BF
:100F500005D53968C90602D53968C906F3D42E60AB
:100F60002C602C612E613968C90608D53968C9061C
:100F700005D53968C90602D53968C906F3D4C82130
:100F800039633968C90608D53968C90605D539688D
:100F9000C90602D53968C906F3D42E602C602C61CD
:100FA0002E613968C90608D53968C90605D539687A
:100FB000C90602D53968C906F3D4A62139633B684E
:100FC000DB0608D53B68DB0605D53B68DB0602D5AA
:100FD0003B68DB06F3D42E602C602C612E613B68ED
:100FE000DB0608D53B68DB0605D53B68DB0602D58A
:100FF0003B68DB06F3D4A8233B633B68DB0608D5DC
:101000003B68DB0605D53B68DB0602D53B68DB06A3
:10101000F3D42E602C602C612E613B68DB0608D572
:101020003B68DB0605D53B68DB0602D53B68DB0683
:10103000F3D43F233B633B68DB0608D53B68DB0604
:1010400005D53B68DB0602D53B68DB06F3D42E6092
:101050002C602C612E613B68DB0608D53B68DB0603
:1010600005D53B68DB0602D53B68DB06F3D4D3230A
:101070003B633B68DB0608D53B68DB0605D53B6870
:10108000DB0602D53B68DB06F3D42E602C602C61B6
:101090002E613B68DB0608D53B68DB0605D53B685F
:1010A000DB0602D53B68DB06F3D400233B633B68D9
:1010B000DB0608D53B68DB0605D53B68DB0602D5B9
:1010C0003B68DB06F3D42E602C602C612E613B68FC
:1010D000DB0608D53B68DB0605D53B68DB0602D599
:1010E0003B68DB06F3D4D5233B633B68DB0608D5BE
:1010F0003B68DB0605D53B68DB0602D53B68DB06B3
:10110000F3D42E602C602C612E613B68DB0608D581
:101110003B68DB0605D53B68DB0602D53B68DB0692
:10112000F3D480233B633B68DB0608D53B68DB06D2
:1011300005D53B68DB0602D53B68DB06F3D42E60A1
:101140002C602C612E613B68DB0608D53B68DB0612
:1011500005D53B68DB0602D53B68DB06F3D4D92313
:101160003B633B68DB0608D53B68DB0605D53B687F
:10117000DB0602D53B68DB06F3D42E602C602C61C5
:101180002E613B68DB0608D53B68DB0605D53B686E
:10119000DB0602D53B68DB06F3D4F1233B633B68F7
:1011A000DB0608D53B68DB0605D53B68DB0602D5C8
:1011B0003B68DB06F3D42E602C602C612E613B680B
:1011C000DB0608D53B68DB0605D53B68DB0602D5A8
:1011D0003B68DB06F3D4DA233B633B68DB0608D5C8
:1011E0003B68DB0605D53B68DB0602D53B68DB06C2
:1011F000F3D42E602C602C612E613B68DB0608D591
:101200003B68DB0605D53B68DB0602D53B68DB06A1
:10121000F3D412233B633B68DB0608D53B68DB064F
:1012200005D53B68DB0602D53B68DB06F3D42E60B0
:101230002C602C612E613B68DB0608D53B68DB0621
:1012400005D53B68DB0602D53B68DB06F3D4DB2320
:101250003B633B68DB0608D53B68DB0605D53B688E
:10126000DB0602D53B68DB06F3D42E602C602C61D4
:101270002E613B68DB0608D53B68DB0605D53B687D
:10128000DB0602D53B68DB06F3D43A633A68D20644
:1012900008D53A68D20605D53A68D20602D53A682A
:1012A000D206F3D42E602C602C612E613A68D206EF
:1012B00008D53A68D20605D53A68D20602D53A680A
:1012C000D206F3D420223A633A68D20608D53A68A7
:1012D000D20605D53A68D20602D53A68D206F3D4CA
:1012E0002E602C602C612E613A68D20608D53A68CF
:1012F000D20605D53A68D20602D53A68D206F3D4AA
:1013000038633868C00608D53868C00605D538681F
:10131000C00602D53868C006F3D42E602C602C615C
:101320002E613868C00608D53868C00605D538680B
:10133000C00602D53868C006F3D48D2038633868FB
:10134000C00608D53868C00605D53868C00602D57D
:101350003868C006F3D42E602C602C612E6138688A
:10136000C00608D53868C00605D53868C00602D55D
:101370003868C006F3D4142038633868C00608D52E
:101380003868C00605D53868C00602D53868C0067A
:10139000F3D42E602C602C612E613868C00608D50D
:1013A0003868C00605D53868C00602D53868C0065A
:1013B000F3D4A42038633868C00608D53868C0065E
:1013C00005D53868C00602D53868C006F3D42E604B
:1013D0002C602C612E613868C00608D53868C006BC
:1013E00005D53868C00602D53868C006F3D439631D
:1013F0003868C00608D53868C00605D53868C00604
:1014000002D53868C006F3D42E602C602C612E61A2
:101410003868C00608D53868C00605D53868C006E3
:1014200002D53868C006F3D4AF2139633868C006E6
:1014300008D53868C00605D53868C00602D53868B2
:10144000C006F3D42E602C602C612E613868C00673
:1014500008D53868C00605D53868C00602D5386892
:10146000C006F3D4009139633868C00608D53868DF
:10147000C00605D53868C00602D53868C006F3D462
:101480002E602C60FFF7C8FB2C612E613868C00607
:1014900008D53868C00605D53868C00602D5386852
:1014A000C006F3D4009838633868C00608D5386899
:1014B000C00605D53868C00602D53868C006F3D422
:1014C0002E602C602C612E613868C00608D5386803
:1014D000C00605D53868C00602D53868C006F3D402
:1014E000019838633868C00608D53868C00605D545
:1014F0003868C00602D53868C006F3D42E602C6068
:101500002C612E613868C00608D53868C00605D53C
:101510003868C00602D53868C006F3D4029838632C
:101520003868C00608D53868C00605D53868C006D2
:1015300002D53868C006F3D42E602C6003B0F0BD2D
:10154000F0B501252B02924C23616D0225618609BD
:10155000022737408F4E3468E40608D53468E40625
:1015600005D53468E40602D53468E406F3D4C91915
:101570005039C9B23163203A3168C90608D531689B
:10158000C90605D53168C90602D53168C906F3D444
:101590007F4F3D603B603B613D613168C90608D5C6
:1015A0003168C90605D53168C90602D53168C90652
:1015B000F3D440B2C1178843010910240C433463AB
:1015C0003168C90608D53168C90605D53168C9062C
:1015D00002D53168C906F3D43D603B603B613D6193
:1015E0003168C90608D53168C90605D53168C9060C
:1015F00002D53168C906F3D40E210840401C30637F
:101600003068C00608D53068C00605D53068C00609
:1016100002D53068C006F3D43D603B603B603D615D
:10162000D1B2062048435C490A5C3468E40608D518
:101630003468E40605D53468E40602D53468E40667
:10164000F3D432633268D20608D53268D20605D5A3
:101650003268D20602D53268D206F3D43D603B60D0
:101660003B603D61081841783268D20608D532687F
:10167000D20605D53268D20602D53268D206F3D436
:1016800031633168C90608D53168C90605D53168A6
:10169000C90602D53168C906F3D43D603B603B60A2
:1016A0003D6181783268D20608D53268D20605D508
:1016B0003268D20602D53268D206F3D4316331687B
:1016C000C90608D53168C90605D53168C90602D5ED
:1016D0003168C906F3D43D603B603B603D61C17831
:1016E0003268D20608D53268D20605D53268D206ED
:1016F00002D53268D206F3D431633168C90608D501
:101700003168C90605D53168C90602D53168C906F0
:10171000F3D43D603B603B603D6101793268D206A5
:1017200008D53268D20605D53268D20602D53268AD
:10173000D206F3D431633168C90608D53168C906C9
:1017400005D53168C90602D53168C906F3D43D60B4
:101750003B603B603D6140793168C90608D531681E
:10176000C90605D53168C90602D53168C906F3D462
:1017700030633068C00608D53068C00605D53068CB
:10178000C00602D53068C006F3D43D603B60F0BDB2
:1017900090520A4010914640503C0000F0B581B094
:1017A00000921278002A1AD00D46064600242746D9
:1017B00006E07F1CF9B2009A525C002A06460ED061
:1017C000F0B2E9B2D2B2FFF7BBFE0836F1B2782927
:1017D000204600D830467829EBD9AD1CE9E701B0A6
:1017E000F0BD0000F0B5384908461038002202600C
:1017F00008460C3802608B20C8610F229201144603
:101800004034324B1C600C1F88252560304B02246D
:101810001C60886048602F4C2F4F2765206D206525
:101820002E4ECE630E648E658E654E66666266646D
:10183000A664E6642A480660812545604E628E6291
:10184000CE620E63276023682360276123692361CA
:101850002762236A2362A762A36AA362E5608560A8
:10186000C660204808600B680B60486148694861A1
:101870008D610D654D650D66201F0560A560134BDC
:10188000184630381849016018461C464038012374
:101890009B03036021600E4B1846303813490160EA
:1018A000196013480168134B0B430360B120000516
:1018B00011490B6A03430B620B6803430B600F482B
:1018C00002600263F0BDC04638804240D0120A4038
:1018D000D0320A40C080424081000E0081000200E8
:1018E0005081424081000C0000724300C033C0743C
:1018F000A0330A4000028A8028300A40A0520A40E1
:10190000F0B581B0224C23492046FFF761F8224907
:101910002046FEF733FF21480168214A0A40026051
:10192000002600962046314632463346FFF73CF803
:10193000204631463246FFF729F87D200701204630
:1019400039463246FFF73CF80125009520463146DE
:1019500032463346FFF728F8204631462A46FFF73D
:1019600015F8204639462A46FFF72AF80D48014661
:101970001C390D600C490A682A430A600146243963
:1019800003220A6001682943016001B0F0BDC0462E
:10199000002086407C4000008040000004388640E3
:1019A0007F00FFFF243186402830864010B50D4C63
:1019B0000D492046FEF720FE0C492046FEF7FAFDB1
:1019C0000B4841680B4A0A40D11C416081681222D1
:1019D0000A432D218A438260016801220A43026082
:1019E00010BDC04600804640884000008A4000008C
:1019F0000491464000FCFFFFF0B581B0224800246E
:101A000004600F263002214D2968814301277802A6
:101A10000090081828600320C1432A1F13680B4058
:101A200013606968B943696039026A688A436A6009
:101A300000030A212246FEF753FE1548FEF7E6FD95
:101A400029681020014320229143296031036A6BE9
:101A50008A43092109035118696339032A680A4333
:101A60002A60A96B0143A963686B00990843686306
:101A70002046FEF76FFEFF20000206490A688243F7
:101A80000A6001B0F0BDC04608030B4004010B40E2
:101A90009440000000E400E010B5084C08492046DE
:101AA000FEF796FF07492046FEF7ECFE0648016860
:101AB0000122114301600548026010BD0000094089
:101AC000BC400000C0400000281009400811094037
:101AD00010B5084C08492046FEF77AFF0749204612
:101AE000FEF7D0FE06480168012211430160054857
:101AF000026010BD00A08640D4400000D840000025
:101B000028B0864008B1864010B50E480722026111
:101B1000036803210B4303600B4B1C68640708D464
:101B20001C68640705D41C68640702D41C68640739
:101B3000F3D504249C6112020368934309025918E7
:101B4000016010BD005144403050444080B500F069
:101B500023F8FFF747FEFFF74FFFFFF7D1FEFFF730
:101B60009BFFFFF7B5FFFFF721FFFFF7CDFF9C209D
:101B7000054900220A54B82004490A542420044983
:101B80000A540448027380BD200620203C05202012
:101B9000F8052020C0062020F0B581B01048114A79
:101BA000426011484260114B5A60114C6260114D05
:101BB0006A60114E7260114F7A60921E1048426046
:101BC000104A07490A6008490A601A6022602A60C0
:101BD00032603A6002601020FEF752FC01B0F0BDA6
:101BE00000080A40030000B100280A4000480A40EB
:101BF000002886400008094000A88640008846402A
:101C0000004844400100002617480168C9B2012974
:101C100029D116490A7A012A23D1154A13685B1C77
:101C20001360CA88521CCA80CA88D2087D2A18D379
:101C30000022CA808B885B1C8B808B883C2B10D346
:101C40008A804B885B1C4B804B883C2B09D34A8095
:101C50000B885B1C0B800B88632B02D363230B80E8
:101C60000A7201218162704720B08640B0002020B6
:101C7000D4062020F0B581B000F040F81A4E30684C
:101C8000C0B201282ED101F05FFE184C2078002848
:101C900001D100F085F82078002821D100253D4AA7
:101CA000505F0227D15F0424125F00F0DDFA744A0E
:101CB000505FD15F125F00F001FD06253548405F9F
:101CC00080000B490A5832202146FFF767FD232088
:101CD000084A2946FFF762FD012080030649086093
:101CE0000120B06201B0F0BD201009403105202074
:101CF000343C00006F410000B0120A40F0B583B0E0
:101D00005F4801880222835E0424005F1B020904ED
:101D10001943014302911F480188825E005F12024D
:101D200009041143014301910120070445021A4CA3
:101D3000204639462A46FEF7EDFB40262046394626
:101D40003246FEF7CDFB15490870204639462A4633
:101D5000FEF7E0FB02AA20463946FEF7CBFB112036
:101D60000703204639462A46FEF7D4FB204639466B
:101D70003246FEF7B5FB09490870204639462A4627
:101D8000FEF7C8FB01AA20463946FEF7B3FB03B0B5
:101D9000F0BDC0463205202000D00C403A0520207E
:101DA00070B5364E3078012811D171880022344840
:101DB000825E91420BD1B1880222825E914206D1AD
:101DC000F1880422805E814201D131242AE0B07A78
:101DD000012812D1B18900222948825E91420CD19A
:101DE000F1890222825E914207D1318A0422805E0B
:101DF000814202D10A36322414E0307D01283BD1E1
:101E0000F18A00221E48825E914235D1318B022236
:101E1000825E914230D1718B0422805E81422BD14F
:101E200014363324FEF7F8FE2820022115A2FFF70E
:101E3000B5FC1E200325154A2946FFF7AFFC4220BA
:101E400029462246FFF77CFB1424042110A22046D9
:101E5000FFF7A4FC052112A22046FFF79FFC308962
:101E6000022803D0012811483C2101E00E484B21F3
:101E700000F0E8FFFEF7D0FE70BDC0467C002020D9
:101E8000D8062020414C41524D210000EC4000007A
:101E9000507265737320616E79206B657900000064
:101EA000746F2073746F7000783E0000A83F0000CC
:101EB000F0B581B0FEF7B0FE00242FA220462146E7
:101EC000FFF76CFC30480078304D01282A4600D0DE
:101ED0002F4A012720463946FFF760FC08262DA22D
:101EE00030463946FFF75AFC2748007802282A4630
:101EF00000D0274A022720463946FFF74FFC28A288
:101F000030463946FFF74AFC1F48007803282A4626
:101F100000D01F4A032720463946FFF73FFC23A283
:101F200030463946FFF73AFC1748007804282A461D
:101F300000D0174A042720463946FFF72FFC1DA280
:101F400030463946FFF72AFC0F480078052800D0B4
:101F50000F4D0527204639462A46FFF71FFC17A2DA
:101F600030463946FFF71AFC0721534A2046FFF74F
:101F700015FC01B0F0BDC04653455454494E4720AE
:101F80005B312F325D000000A000202001410000E5
:101F9000F14000005345542054494D4500000000D5
:101FA00053455420444154450000000053455420FB
:101FB00041504D0053415645000000004E455854D5
:101FC0002050414745203E3E00000000F0B581B062
:101FD000FEF722FE002427A220462146FFF7DEFB63
:101FE00028480078284D01282A4600D0274A012792
:101FF00020463946FFF7D2FB082625A2304639464F
:10200000FFF7CCFB1F48007802282A4600D01F4A61
:10201000022720463946FFF7C1FB204A30463946A1
:10202000FFF7BCFB1748007803282A4600D0174A60
:10203000032720463946FFF7B1FB19A2304639463F
:10204000FFF7ACFB0F480078042800D00F4D0427A1
:10205000204639462A46FFF7A1FB13A230463946EF
:10206000FFF79CFB0721144A2046FFF797FB01B0BE
:10207000F0BDC04653455454494E47205B322F3281
:102080005D000000A100202001410000F14000009F
:1020900053544F5057415443480000000B41000037
:1020A00045584954000000003C3C20505245562001
:1020B000504147450000000063410000F0B585B085
:1020C0000646FEF7A9FD00244A4A20462146FFF7AE
:1020D00065FB0125484A204603942946FFF75EFB2D
:1020E00030463030C2B226202946FFF729FA0225B1
:1020F00042A220462946FFF751FB0A2046430746E5
:102100000490404834180A3C60883F4E7043C00C2D
:102110003030C2B224202946FFF712FA60883146D7
:102120004143C90C7943401A30273843C2B22A20B0
:1021300002902946FFF704FA3A22019238462946CE
:10214000FFF7FEF9A0887043C00C3030C2B23620D1
:102150002946FFF7F5F9A08831464143C90C049A96
:102160005143401A3843C2B23C202946FFF7E8F9F0
:1021700042202946019AFFF7E3F9E0887043C00C3A
:102180003030C2B248202946FFF7DAF9E0884643EA
:10219000F10C039E049A5143401A3843C2B24E20B8
:1021A0002946FFF7CDF9032518A230462946FFF747
:1021B000F5FA2078002801D119A200E016A20298B1
:1021C0002946FFF7EBFA042118A23046FFF7E6FA9A
:1021D00005211AA23046FFF7E1FA06211AA230467D
:1021E000FFF7DCFA07211CA23046FFF7D7FA05B04B
:1021F000F0BDC0460B410000EC40000054696D6525
:102200003A2000007C002020CDCC00005374617483
:1022100075733A2000000000454E41424C45440091
:1022200044495341424C454400000000313A436860
:10223000616E676520416C61726D0000323A5365D2
:10224000742054696D650000333A546F67676C659C
:1022500020456E61626C6500233A4261636B202009
:10226000363A536176650000F0B583B00292019171
:1022700004467D20C100204601F0FCFB3030C2B294
:10228000232002252946FFF75BF96421204601F04F
:10229000F1FB0A273946FDF7BDFF3031CAB22920CC
:1022A0002946FFF74DF92046394601F0E3FB064683
:1022B0003946FDF7AFFF3031CAB22F202946FFF76C
:1022C0003FF97E43A01B3030C2B235202946FFF7CC
:1022D00037F9019E3046394601F0CCFB04463030D8
:1022E000C2B241202946FFF72BF97C43301B303026
:1022F000C2B247202946FFF723F9029E30463946ED
:1023000001F0B8FB04463030C2B253202946FFF733
:1023100017F96743F01B3030C2B259202946FFF746
:102320000FF903B0F0BD0000F0B587B00446FEF72A
:1023300073FC002552A228462946FFF72FFA0A20EF
:10234000059044430A3C00942C4616E055A203989D
:10235000C01CC4B202982146FFF720FA38898000D9
:1023600052494018001F026824202146FFF716FA40
:102370000A35049C641C1E2D7AD00098A84201D016
:10238000202200E03E2260000390801CC6B20020A4
:102390003146FFF7D5F80620029031463C4AFFF758
:1023A000FDF9049420463130C2B22A203146FFF7AD
:1023B000C7F8384847197888374948430C46C00C55
:1023C0003030C2B236203146FFF7BAF8788821465D
:1023D0004143C90C059A5143401A302106910843E4
:1023E000C2B23C203146FFF7ABF842203A220192BC
:1023F0003146FFF7A5F8B8882C46274D6843C00C36
:102400003030C2B248203146FFF79AF8B8882946E2
:1024100025464143C90C059C6143401A069908436F
:10242000C2B24E203146FFF78BF854203146019A54
:10243000FFF786F8F88818494843C00C3030C2B21C
:102440005A203146FFF77CF8F88813494143C90CFC
:102450006143401A06990843C2B260203146FFF733
:102460006FF80C48405D002800D16FE70BA26EE7C3
:10247000002008210EA2FFF791F907B0F0BDC04679
:1024800053454C45435420414C41524D00000000FF
:10249000EC4000007C002020CDCC00005B4F4E5D66
:1024A000200000005B4F46465D000000A400202095
:1024B000233A4261636B2020363A53656C6563743E
:1024C00000000000F0B583B0FEF7A6FB002559A27E
:1024D00028462946FFF762F9594908880E46594FA0
:1024E0007843C00C3030C2B2022428462146FFF7A0
:1024F00027F83088354639464143C90C0A220292F2
:102500005143401A302101910843C2B206202146AE
:10251000FFF716F80C203A2621463246FFF710F84E
:1025200068887843C00C3030C2B212202146FFF7D1
:1025300007F8688839464143C90C029D6943401A2F
:1025400001990843C2B218202146FEF7F9FF1E2068
:1025500021463246FEF7F4FF394EB0887843C00C6E
:102560003030C2B224202146FEF7EAFFB088394657
:102570004143C90C6943401A019E3043C2B22A202C
:102580002146FEF7DDFF2E2230462146FEF7D8FF1A
:102590002B4DE88880082C494843400C3030C2B2AB
:1025A00036202146FEF7CCFFE8888108264A5143B1
:1025B000490C64224A43801A80B267214143880A49
:1025C0003043C2B23C202146FEF7BAFFE8884743B9
:1025D000F90C029A5143401A3043C2B242202146BC
:1025E000FEF7AEFF287A012808D10024042129A291
:1025F0002046FFF7D3F806212AA211E0687A0024CA
:102600000421012806D11BA22046FFF7C7F80621A6
:102610001CA20AE00DA22046FFF7C0F806210FA277
:102620002046FFF7BBF80721114A2046FFF7B6F80E
:1026300003B0F0BD53544F5057415443483A000043
:10264000B0002020CDCC00007B1400005354415436
:1026500055533A2053544F5050454400313A526537
:1026600073756D6520323A52657365740000000021
:102670007D4100005354415455533A20524553452F
:1026800054000000313A53746172742020233A459B
:10269000786974005354415455533A2052554E4E64
:1026A000494E4700313A53746172742F53746F70FE
:1026B00020323A526573657400000000F0B583B0B3
:1026C00005464A48007801280292019146D10C261D
:1026D000009528463146FDF79DFD002900D00E46A5
:1026E00070B267214143C80F89120D182846303057
:1026F000C2B2282000273946FEF722FF0A2465438C
:10270000701B3030C2B22E203946FEF719FF0198F7
:102710002146FDF77FFD0E463030C2B23A203946E1
:10272000FEF70EFF3036F2B240203946FEF708FFC2
:1027300002982146FDF76EFD0C463030C2B24C20A7
:102740003946FEF7FDFE3034E2B252203946FEF73C
:10275000F7FE00980B283DDC41223CE00A27284682
:10276000394601F087F906463030C2B228200024ED
:102770002146FEF7E5FE7E43A81B3030C2B22E2074
:102780002146FEF7DDFE019E3046394601F072F922
:1027900005463030C2B23A202146FEF7D1FE7D43D5
:1027A000701B3030C2B240202146FEF7C9FE029EA7
:1027B0003046394601F05EF905463030C2B24C2051
:1027C0002146FEF7BDFE6F43F01B3030C2B25220EF
:1027D000214607E0502258203946FEF7B1FE5E2020
:1027E0004D223946FEF7ACFE03B0F0BD3005202087
:1027F00088B0FFF7ABF9FEF703FAFDF72FFEFEF7FF
:10280000BFFA6848042102910160012211050160AC
:1028100010048178644C2180417861800078A08028
:10282000112000030178614FB98041787980408898
:10283000388038880023E05E182800DB23800220DF
:102840000590205E3C2800DB63800298205E3C28D7
:1028500000DBA3800598385E0C2802DC788800280D
:1028600000D17B800298385E1F2802DCB8880028DF
:1028700000D1BB800692F85E4D49884200DB3B8068
:102880000493FD5E05983E5E032E00DA6D1E642102
:102890002846FDF7BFFC0C4619200101284601F02F
:1028A000E9F80299795E09190F186320C143284697
:1028B00001F0E0F840003D18032E00DA0C361A2033
:1028C00070431A300A21019101F0D4F8281861B23E
:1028D000890F611849B289104018401E072421460B
:1028E000FDF798FC0029314F00D5C91D069E881DB3
:1028F000C1B225224A43110A421AD2B252085118D3
:1029000089084C43001B401CC0B2F880FEF784F9D4
:10291000049D785F3A46059FD15F029C125FFFF7E6
:10292000A3FC214A505FD15F125FFFF7C7FE062567
:102930001E48405F80001F490A5832202146FEF79A
:102940002DFF23201C4A03952946FEF727FF07A8E1
:10295000067009E02846009C2146FEF71FFF384616
:102960002146164AFEF71AFF154D0BE003262846AE
:102970003146FEF713FF20463146104AFEF70EFFA0
:10298000069E3D460F4F104CFEF730F83860207819
:102990000628F9D87844007940008744176E324DF4
:1029A000228A940000E100E0D80620203205202091
:1029B00010270000343C00006F4100003741000048
:1029C0000024F400D00620203105202038680F288C
:1029D000DAD12670F6480670F6480660FFF768FA06
:1029E000D2E73868012800D08AE0F349487A012804
:1029F000F24A00D0B0E00E7204984872106830437A
:102A000016E13868022803D03868052800D0BCE0F9
:102A10002846FDF735FD3868022802D038680528B9
:102A2000B2D1E7490878012800D089E02670FD4836
:102A300006600520DE498BE03868022809D0386836
:102A4000052806D03868072803D038680A2800D03F
:102A50001CE12846FDF714FD3868022800D180E10A
:102A60003868052800D17CE13868072800D178E172
:102A700038680A2800D087E773E13868022803D055
:102A80003868052800D09CE02846FDF7F9FC386836
:102A9000022803D03868052800D075E7E84908788F
:102AA000012853D105982070DE4908600298E34957
:102AB00048E03868012837D10398207007A80078CB
:102AC000FFF732FC0DE0386801280EDB3868032878
:102AD0000BDC386807A90870052020700878FFF71C
:102AE000EDFA2846FDF7CCFC4EE738680F2800D0F9
:102AF0004AE70520207007A80078FFF7DFFA43E7D0
:102B00003868022831D10498C449088048808880F8
:102B1000C88008724E72C2490860BD490868B04357
:102B20000860F003486084E03868022866D107AC8A
:102B3000207800F001FE2078B64CFFF7BFFA23E7BB
:102B40000878401E0870FFF741FA1DE70878401E1C
:102B50000870FFF7ADF917E7087A70400872097A34
:102B60001068012963D1304362E038680F2865D1CD
:102B7000AA48007A012803D1A5490868B043086033
:102B800005982070FFF722FA58E03868072802D02D
:102B900038680A2867D12846FDF772FC386807288C
:102BA00003D038680A2800D0EEE6A4490878042843
:102BB00053D126709B480660A1480670FFF778F94C
:102BC000E2E63868072802D038680A2868D1284623
:102BD000FDF756FC3868072803D038680A2800D06B
:102BE000D2E69749087805283AD1059820708D4992
:102BF000086092480670FFF7E9F9C5E638680328CF
:102C000023D107A80178019B5943834A89180A39BF
:102C10000978714002785A437F4BD2180A3A1170F2
:102C20000078FFF74BFA7948FDF72AFCACE6B04391
:102C30001060FFF747FC7548FDF722FC2078042858
:102C400000D0A1E6FFF73EFC9EE63868042838D1A4
:102C500007AC207800F0E6FC6DE70878401C71E7CF
:102C60000878401C74E73868062831D12846FDF7FB
:102C700007FC3868062800D086E6704908780128E5
:102C800044D102982070FFF71DFC7DE638680628C5
:102C900022D12846FDF7F4FB3868062820D073E6D9
:102CA0003868062829D12846FDF7EAFB3868062847
:102CB00000D069E662490878012832D100F054FB5F
:102CC00062E638680F2813D03868062810D05BE613
:102CD00038680F2815D057E638680F2800D053E61B
:102CE000C1480068012803D12670FFF7E1F84BE6E0
:102CF00005982070FFF76AF946E63868082800D082
:102D000042E604982070FDF787FF3DE60878022828
:102D100000D1EEE608780328F3D00878042813D011
:102D200032E60878022802D100F060F92CE6087833
:102D3000032847D00878042802D100F0D9F823E608
:102D40000878052800D01FE6A7490868012804D1A3
:102D50000598086039490E70CBE70E603848067058
:102D6000C2E72F46304C2078414241412170FDF7A7
:102D700053FF0025284629462C4AFEF70FFD2078F0
:102D800000282B4A00D02B4A022628463146FEF75F
:102D900005FD082420463146274AFEF7FFFC22485D
:102DA00000780128224A00D1E0E5224ADEE5C0464B
:102DB000A00020209C002020B000202004B88640E5
:102DC000A1002020032000902070FDF725FF0025A2
:102DD00028462946154AFEF7E1FC134800780028EA
:102DE000134A00D0134A022428462146FEF7D6FC97
:102DF000082007462146104AFEF7D0FC0A48007812
:102E000001280B4A00D1A5E50A4AA3E500366E0168
:102E100004B88640310520207C002020B00020200E
:102E2000D40620209C002020300520204F410000A7
:102E300001410000F14000003F410000A1002020BE
:102E4000A0002020F0B581B00C460546FDF7D8FE65
:102E500022490868012738430860F9042048009196
:102E6000016013E01F4846433046FDF709FB1B484D
:102E700047606E881C4839463A46FDF7A1FD19485F
:102E800046433046FDF7FCFA641E2D1D002C17D07A
:102E9000FDF7ACFD0028F7D128880128014600D8AD
:102EA00039460E4A51600028394600D041086E88E4
:102EB0000D483A46FDF784FD012ED3D83E46D1E7B2
:102EC000064A106801218843106008480099016093
:102ED000BFF34F8FBFF36F8F01B0F0BD0438864052
:102EE00000E100E0803801000020864080E100E041
:102EF000F0B585B0FDF790FE00200290022132A2CD
:102F00000C460091FEF74AFC3248FDF7B9FA324808
:102F10000188025F0423C05E1202090411430143C9
:102F200004912E480188025FC05E12020904114319
:102F3000014303910120019005044702284E3046C9
:102F400029463A46FDF7E6FA40243046294622460D
:102F5000FDF7C6FA23490870304629463A46FDF780
:102F6000D9FA04AA30462946FDF7C4FA1120050310
:102F7000304629463A46FDF7CDFA304629462246E4
:102F8000FDF7AEFA17490870304629463A46FDF774
:102F9000C1FA03AA30462946FDF7ACFAFDF73CFE1C
:102FA000F04A02980099FEF7F9FBE848FDF768FA45
:102FB000FDF732FEDF4801990170DD480160FEF740
:102FC00077FF05B0F0BDC046534156494E472E2EFF
:102FD0002E000000007C9200D80620203205202020
:102FE00000D00C403A0520209C002020F0B59FB076
:102FF000FDF712FE00271E971D971C971B971A9727
:103000001997189717970221C5A238460191FEF724
:10301000C5FB0321C54A38460291FEF7BFFB3D467A
:103020003E4638463C4617E0099D642058437D21C2
:10303000C9002B46069D69431D4640187E438019F2
:10304000079946187C43A718C048FDF719FA0A9C4F
:10305000082C089800DBB5E0099007963046294611
:103060003A46FFF701F95F26002C0A9401DC30464E
:1030700001E017983030C2B2282004242146FEF720
:103080005FFA0A98012801DC304601E018983030D8
:10309000C2B22E202146FEF753FA0A98022801DC1C
:1030A000304601E019983030C2B234202146FEF794
:1030B00047FA0A98032801DC304601E01A983030BC
:1030C000C2B23A202146FEF73BFA0A98042801DCF6
:1030D000304601E01B983030C2B240202146FEF756
:1030E0002FFA0A98052801DC304601E01C983030A0
:1030F000C2B246202146FEF723FA0A98062801DCD0
:10310000304601E01D983030C2B24C202146FEF717
:1031100017FA0A98072801DD1E9E3036F2B25220B7
:103120002146FEF70DFAFDF761FC00280594089092
:1031300023D00F284AD0099981421ED0082809D1EE
:103140000A98012819DB401E0A90800017A9002266
:103150000A5012E0002910D1401E80B20D280CD870
:103160007549C140C90708D08000744908580A9BB6
:10317000990017AA50505B1C0A93189B1798069049
:103180000A27199E1A9807901D9C1E9A1B9D384667
:1031900068431C99401809900D2800DA44E7002084
:1031A0000621049266A20393FEF7F8FA039B049AA1
:1031B000022D099D00DA38E702201C9001201B90A7
:1031C0000C2532E7099501200A900BE05848006869
:1031D000012800D1019009955648019901700020FD
:1031E0000A90079E5A480BA93CC83CC13CC83CC148
:1031F0003CC83CC10298304044424441554807967F
:1032000070435549411802200890C141534A01209A
:103210009142064600D800260999012900DC0146A2
:103220000D460C2900DB0C25192001010798099196
:10323000FCF7F0FF344201D1002901D11D200C9090
:103240004749079808804D80012F059C00DC012725
:10325000A8000BA94018001F0068874200DB074642
:103260003F498F8000200F5E08980E5E032E00DA23
:103270007F1E64213846FCF7CDFF0D46384609997C
:1032800000F0F8FB3649095F49190C186320C14367
:10329000384600F0EFFB40002418032E00DA0C360D
:1032A0001A2070431A300A2100F0E4FB201869B29A
:1032B000890F691849B289104018401E0724214619
:1032C000FCF7A8FF002900D5C91D881DC1B2252221
:1032D0004A43110A421AD2B25208511889084C4383
:1032E000001B401CC0B21E49C880FDF795FC0A981F
:1032F000002809D000200221C84AFEF74FFAC8482A
:10330000FDF7BEF8FDF788FC09480068012803D1E5
:10331000FEF7CEFD1FB0F0BDFEF758FE1FB0F0BDAA
:10332000595959594D4D4444000000001D410000B9
:103330009C002020310520207727000084410000D8
:103340004D4F4E54483C3D31322100000024F400E2
:103350004C400000295C8FC250B81E05285C8F02CB
:103360003205202047410000F0B591B0FDF754FC34
:10337000002710970F970E970D970C970B97012129
:1033800095A23846FEF70AFA0221954A384601917D
:10339000FEF704FA0997029703973D463A463C46E2
:1033A0003E46384608970AE0069FE248FDF768F86F
:1033B000062F32460A9C0598079E00DBCDE0079059
:1033C000304621460492FFF779F9002F0A9427DD51
:1033D0003035EAB228200321FEF7B2F8012F24D0BD
:1033E00003983030C2B230200321FEF7A9F8022F33
:1033F00020D902983030C2B238200321FEF7A0F85D
:10340000032F1CD0079D09983030C2B24020032101
:10341000FEF796F8052F00D29DE0089C303415E0A9
:10342000282003215F22FEF78BF8302003215F2242
:10343000FEF786F8382003215F22FEF781F8079D0A
:10344000402003215F242246FEF77AF8E2B24820AA
:1034500003242146FEF774F850205F222146FEF730
:103460006FF8FDF7C3FA00280697059021D00F28C2
:1034700000D18BE085421CD0082808D1012F18DB31
:103480007F1E0697B8000BA900220A5011E0002DFC
:103490000FD1401E80B20D280BD85549C140C90735
:1034A00007D0800053490858B9000BAA50507F1C20
:1034B00006970A270F980890109804900D9A0E9876
:1034C00009900B9D384668430C990391401807906A
:1034D00018280FDB264600200521144646A2FEF7D9
:1034E0005DF92246022D05DB0C9602250B9517206F
:1034F0000790039638465043099944183C2C10DB3A
:10350000002006212E4615463EA2FEF747F92A4620
:103510003546062A05DB092009900E9005220D92FA
:103520003B240A94089C67430498381806463C28B4
:10353000029200DA38E70020072135A2FEF72EF9C3
:10354000062C069F00DA30E709201090052008902D
:103550000F903B2629E75F2478E7172E00DB17261C
:10356000224806803B213B2C00DB0C4644803B2A52
:1035700000DB0A468280FDF74FFB00200221274A2C
:10358000FEF70CF9EF48FCF77BFF17E015480068E1
:10359000012800D10190144801990170172E0A9A50
:1035A00000DB1726114806803B213B2A00DB0A4638
:1035B0004280049A3B2A00DB0A468280FDF72CFBFE
:1035C00008480068012803D1FEF772FC11B0F0BD75
:1035D000FEF7FCFC11B0F0BD48484D4D53530000C0
:1035E0001D4100009C00202031052020D80620200D
:1035F0007727000084410000484F55523C32342167
:10360000202020004D494E3C363021202020200033
:103610005345433C36302120202020004741000004
:1036200000B4C404F0B585B00A21414338480818F5
:10363000841EFDF7F1FA00942588002035A201468A
:10364000FEF7ACF803E00125B648FCF719FF3E2170
:103650002020032D0491039100D00390022D0499A2
:10366000029100D002900195012D00D00490002617
:10367000022430462146049AFDF762FF2948026879
:103680000546062738462146FEF788F803243046CB
:103690002146029AFDF754FF6A6838462146FEF734
:1036A0007DF8042530462946039AFDF749FF1D4859
:1036B000826838462946FEF771F8FDF797F9801EB3
:1036C0000D28D4D8784400794000874407060607BF
:1036D000110C06060C060606061EC8E7019D6D1EA7
:1036E000B2DC2546B0E7019D032DACDA6D1CABE7DB
:1036F000009801990180FDF78FFA002002210AA2AB
:10370000FEF74CF88F48FCF7BBFE05B0F0BDC04695
:103710007C00202053454C454354204D555349438C
:1037200000000000A40020204D555349432053457C
:10373000542100000024F400F0B58DB00446FDF7DC
:103740006BFA00260C960B960A9609960896079631
:10375000012567A230462946FEF720F8022168A21B
:103760003046FEF71BF8032169A22846FEF716F83B
:103770006C48FCF785FE0A214C436B4820180A3838
:1037800000903246334635463046049104E0059EAB
:10379000062E069800DB96E00693039201900596AC
:1037A00028460F4600F066F906463030C2B228209F
:1037B00005242146FDF7C4FE7E43A81B3030C2B26B
:1037C0002E202146FDF7BCFE34203A2721463A46FA
:1037D0000297FDF7B5FE0698049D294600F04AF9C8
:1037E00006463030C2B238462146FDF7A9FE6E4388
:1037F0000698801B3030C2B240202146FDF7A0FE63
:1038000046202146029AFDF79BFE039E304629463C
:103810002F4600F02FF905463030C2B24C20214629
:10382000FDF78EFE7D43701B3030C2B25220214620
:10383000FDF786FEFDF7DAF80028069023D00F2862
:1038400051D0019981421ED0082809D1059801283C
:1038500019DB401E0590800007A900220A5012E0E3
:10386000002910D1401E80B20D280CD83049C1402B
:10387000C90708D080002F490858059B990007AA5E
:1038800050505B1C059308980390079D0A9802907E
:10389000099F0C9C0B9E2348FCF7F2FD04994E43B4
:1038A00032193B203B2A00DB02464F43029BFB18A8
:1038B0003B2B00DB03464D4303982D18172D00DAF0
:1038C00065E7172563E7009845808380C280FDF790
:1038D000A3F90020022118A2FDF760FF1948FCF7A8
:1038E000CFFD0DB0F0BD114804700DB0F0BDC04665
:1038F00053657420416C61726D2054696D650000E0
:10390000466F726D61743A2048484D4D5353000024
:1039100022232220746F206578697420423A44453E
:103920004C0000000024F4007C0020203105202001
:10393000772700008441000054494D4520534554E9
:103940002100000000B4C40470B584B033488188FD
:10395000491C81800425415F3C295DDB0021818079
:103960004288521C42800224025F3C2A54DB418080
:103970000288521C0280425E182A4DDB0180284ECC
:10398000B088401CB0800620305E401C0721FCF748
:1039900041FCF180308880070ED0308821494143B6
:1039A000512000010818010380B20009401880B2BC
:1039B000A2280ED91C200DE030881A4941431A482C
:1039C0000818810380B28008401880B217498842E5
:1039D000E3D91D2001A91F22CA721E238B724A72CD
:1039E0000B72CA718A714B710A71CB708A70487000
:1039F0000A70705F325F5118491E097888420BDDEA
:103A00000120B0807188491C7180315F0D2903DB72
:103A100070803088401C308004B070BDD8062020F3
:103A200032052020295C00001C0500008E020000E9
:103A300043088B421AD3002203098B4279D3030A2D
:103A40008B425ED3030B8B4242D3030C8B4227D3B2
:103A50000902FF2212BA030C8B4202D3121209028E
:103A600003D0030B8B4233D31AE0D3E0411A8041D9
:103A7000401C704703460B4371D443088B42F5D377
:103A8000002203098B4254D3030A8B4239D3030B20
:103A90008B421DD3030C8B4202D394466EE0090A7D
:103AA000C30B8B4201D3CB03C01A5241830B8B4211
:103AB00001D38B03C01A5241430B8B4201D34B03FA
:103AC000C01A5241030B8B4201D30B03C01A52415F
:103AD000C30A8B4201D3CB02C01A5241830A8B42E4
:103AE00001D38B02C01A5241430A8B4201D34B02CD
:103AF000C01A5241030A8B4201D30B02C01A524131
:103B0000CDD2C3098B4201D3CB01C01A52418309E4
:103B10008B4201D38B01C01A524143098B4201D31E
:103B20004B01C01A524103098B4201D30B01C01A49
:103B30005241C3088B4201D3CB00C01A52418308C3
:103B40008B4201D38B00C01A524143088B4201D3F0
:103B50004B00C01A5241411A524110007047CA0F1F
:103B600000D04942031000D34042534000229C46FB
:103B700003098B422DD3030A8B4212D38901FC2205
:103B800012BA030A8B420CD3890192118B4208D3DB
:103B9000890192118B4204D3890137D0921100E040
:103BA0008909C3098B4201D3CB01C01A5241830951
:103BB0008B4201D38B01C01A524143098B4201D37E
:103BC0004B01C01A524103098B4201D30B01C01AA9
:103BD0005241C3088B4201D3CB00C01A5241830823
:103BE0008B4201D38B00C01A5241D9D243088B4279
:103BF00001D34B00C01A5241411A00D20146524132
:103C0000104663465B1000D34042704763465B102A
:103C100000D3404201B50021004201D0C94308460B
:103C2000C046C04602BD000003B40148019001BD7A
:103C300001002020334100002F4100000741000017
:103C4000034100005F410000194100005B4100009A
:103C50000000000000000000002F0000000007002E
:103C6000070000147F147F1400242A7F2A120062A8
:103C70006408132300364955225000000503000054
:103C800000001C224100000041221C000014083EDC
:103C900008140008083E0808000000A060000008A2
:103CA00008080808000060600000002010080402F6
:103CB000003E5149453E0000427F400000426151B4
:103CC0004946002141454B31001814127F1000274E
:103CD00045454539003C4A49493000017109050311
:103CE00000364949493600064949291E0000363642
:103CF00000000000563600000008142241000014A5
:103D00001414141400004122140800020151090681
:103D100000324959513E007C1211127C007F494902
:103D20004936003E41414122007F4141221C007F33
:103D300049494941007F09090901003E4149497A41
:103D4000007F0808087F0000417F410000204041BB
:103D50003F01007F08142241007F40404040007F27
:103D6000020C027F007F0408107F003E4141413E6B
:103D7000007F09090906003E4151215E007F0919B3
:103D800029460046494949310001017F0101003FB0
:103D90004040403F001F2040201F003F4038403F30
:103DA0000063140814630007087008070061514994
:103DB000454300007F41410000552A552A55000027
:103DC00041417F00000402010204004040404040A5
:103DD000000001020400002054545478007F48443D
:103DE000443800384444442000384444487F003874
:103DF0005454541800087E0901020018A4A4A47C9D
:103E0000007F080404780000447D40000040808466
:103E10007D00007F102844000000417F4000007CAE
:103E200004180478007C08040478003844444438BA
:103E300000FC242424180018242418FC007C080406
:103E4000040800485454542000043F444020003CDF
:103E50004040207C001C2040201C003C4030403C66
:103E6000004428102844001CA0A0A07C00446454F6
:103E70004C4414141414141478096400F807320024
:103E80001A073200000064007809640053066400D9
:103E9000F9056400F408640000006400F40864009C
:103EA000F408320078093200ED0B6400A10A6400C6
:103EB00078096400F80732001A0732000000640035
:103EC0001A076400BD046400FC0332008D03320055
:103ED0001A076400BD04640029036400FC02640046
:103EE0007A0464001A0764007A0464007A043200D9
:103EF000BD043200F905640052056400BD0464008D
:103F0000FC0332008D0332001A0764001A076400B4
:103F1000BD046400FC0332008D0332001A07640004
:103F2000BD04640029036400FC0264007A04640098
:103F30001A0764007A0464007A043200BD04320077
:103F4000F905640052056400BD046400FC033200FE
:103F50008D0332001A0764001A076400BD04640070
:103F6000FC0332008D0332001A076400BD046400B4
:103F700029036400FC026400A80264001A076400BC
:103F80008D03640029036400FC036400520564008F
:103F9000BD046400FC03320029033200FC0232003D
:103FA000290332000100C8007809C200A10A740088
:103FB000ED0B610000009100A10A910078099100C9
:103FC00000006100F408610078094D00A10AC200F8
:103FD000C2007809A10A7400ED0B61000000910095
:103FE000A10A91007809910000006100F4086100C5
:103FF00078094D00A10AC200C2007809A10A740024
:10400000ED0B610000009100A10A91007809910078
:1040100000006100F408610078094D00A10AC200A7
:10402000C2007809A10A7400ED0B61000000910044
:10403000A10A91007809910000006100F408610074
:1040400078094D00A10AC200C20000001F00000054
:104050001C0000001F0000001E0000001F000000E8
:104060001E0000001F0000001F0000001E000000D6
:104070001F0000001E0000001F0000000800630079
:10408000D00700000000010008000400000000004C
:104090000710000001000000000000000000000008
:1040A00000000000000000001000000000010000FF
:1040B00003000000000000003400C441040063005D
:1040C000020000003F9C0000010000000000000012
:1040D00000000000020000000200000020000000BC
:1040E000000000000000000000000000416C617250
:1040F0006D20004D7573696332004D7573696333CC
:10410000003E005745440054554500414C41524D36
:104110002053455454494E470046524900233A45DE
:1041200058495420423A44454C20363A4F4B004DB2
:104130004F4E0053554E0031322D484F55520032EC
:10414000342D484F55520053554343455353005463
:10415000494D4520464F524D41540053415400545F
:10416000485500423A45584954204D454E55005B4C
:10417000235D3A4D454E55004841525500233A457E
:1041800078697400010000000200000003000000D4
:10419000010000000400000005000000060000000F
:1041A00001000000070000000800000009000000F6
:1041B00001000000010000000000000000000000FD
:1041C000F041000000002020340000002001000029
:1041D00024420000340020208C0000002001000058
:1041E000B0420000C000202020070000480100006D
:1041F00081B0112109020122425009494018016889
:1042000007220A4000920099C9B2032903D00099FD
:10421000C9B20129F3D10098C0B201B07047C046BD
:10422000D0130000000000000000000000000000AB
:10423000000000000000000000000000000000007E
:10424000000000000000000000000000000000006E
:10425000000000000000000000000000000000005E
:1042600000000000000000003400202001000700D2
:1042700000000000010001000C001E000000020010
:104280000100160000000000030000000100000013
:104290000101000078410000F3400000FA400000F6
:1042A000000000000000000000010000000000000D
:04000005000000C136
:00000001FF
